:020000040800F2
:1000000000280020791600088D0F0008930F0008C3
:10001000990F00089F0F0008A50F000800000000BE
:10002000000000000000000000000000AB0F00080E
:10003000B70F000800000000C30F0008CF0F000832
:10004000C1160008C1160008C1160008C116000834
:10005000C1160008C1160008C1160008C116000824
:10006000C1160008C1160008C1160008C116000814
:10007000C1160008C1160008C1160008C116000804
:10008000C1160008C1160008C1160008C1160008F4
:10009000C1160008C1160008C1160008C1160008E4
:1000A000C1160008C1160008C1160008C1160008D4
:1000B000DD0F0008C116000800000000C11600088E
:1000C000C11600080000000000000000C116000872
:1000D00000000000C1160008C11600080000000062
:1000E000C1160008C1160008C11600080000000073
:1000F0000000000000000000000000000000000000
:0C01000000000000000000005FF808F1A3
:10010C0010B5054C237833B9044B13B10448AFF345
:10011C0000800123237010BD680000200000000047
:10012C00082D000808B5034B1BB103490348AFF376
:10013C00008008BD000000006C000020082D0008A5
:10014C0080B400AF064B1B68012B04D1044B00227A
:10015C001A60012300E000231846BD4680BC70479E
:10016C008400002080B400AF064B1B68012B04D127
:10017C00044B00221A60012300E000231846BD4600
:10018C0080BC70478800002080B400AF064B1B6811
:10019C00012B04D1044B00221A60012300E0002340
:1001AC001846BD4680BC70478C00002080B400AF60
:1001BC00034B01221A6000BFBD4680BC704700BFD4
:1001CC008400002080B400AF034B01221A6000BFF2
:1001DC00BD4680BC704700BF8800002080B400AFD3
:1001EC00034B01221A6000BFBD4680BC704700BFA4
:1001FC008C00002080B500AF1F4B1B681F4A13609A
:10020C001F4B1B681C4A13604FF400511D4801F032
:10021C003DFD03461A461A4B1A60184B1A68164BCA
:10022C001B689A4225D1144B1A68154B1B689A42CD
:10023C001FD1154B1A68124B1B689A420DD0104BEC
:10024C001B68114A13600E4B1B68002B11D1FFF772
:10025C00ADFF0E4BC8221A600BE00C4B1B68013B28
:10026C000A4A1360094B1B68002B02D1064B012272
:10027C001A6000BF80BD00BF0400002000000020F9
:10028C0008000020001001400C000020100000208D
:10029C0080B500AF1F4B1B681F4A13601F4B1B68B8
:1002AC001C4A13604FF480411D4801F0EFFC0346DB
:1002BC001A461A4B1A60184B1A68164B1B689A424E
:1002CC0025D1144B1A68154B1B689A421FD1154B3C
:1002DC001A68124B1B689A420DD0104B1B68114ABE
:1002EC0013600E4B1B68002B11D1FFF76BFF0E4BED
:1002FC00C8221A600BE00C4B1B68013B0A4A1360C6
:10030C00094B1B68002B02D1064B01221A6000BF5F
:10031C0080BD00BF18000020140000201C0000202D
:10032C0000100140200000202400002080B500AF08
:10033C001F4B1B681F4A13601F4B1B681C4A136022
:10034C004FF400411D4801F0A1FC03461A461A4B1C
:10035C001A60184B1A68164B1B689A4225D1144B1D
:10036C001A68154B1B689A421FD1154B1A68124B11
:10037C001B689A420DD0104B1B68114A13600E4B30
:10038C001B68002B11D1FFF729FF0E4BC8221A60F6
:10039C000BE00D4B1B68013B0B4A13600A4B1B68AF
:1003AC00002B02D1064B01221A6000BF80BD00BF9A
:1003BC002C000020280000203000002000100140FC
:1003CC0034000020240000203800002080B500AF4D
:1003DC00FFF710FFFFF75CFFFFF7A8FF00BF80BD22
:1003EC0080B500AFAE4B1B68082B00F24E8101A20A
:1003FC0052F823F0250400089304000815050008A2
:10040C0097050008170600089706000897060008CD
:10041C00970600086D04000800F0EAFDA14B0022CD
:10042C001A60A14B00221A60A04B00221A60A04B4C
:10043C0000221A609F4B00221A60994B01221A600D
:10044C009D4B1B684FF47A7202FB03F3184600F0C5
:10045C0055FC0A2000F06CFC0A2000F083FC1DE126
:10046C008F4B01221A60944B1B684FF47A7202FB7B
:10047C0003F3184600F042FC0A2000F059FC0A2055
:10048C0000F070FC0AE100F0DDFD00F053FE8B4B38
:10049C001B68012B0BD1824B02221A60884B1B6804
:1004AC004FF47A7202FB03F3184600F027FC854BDD
:1004BC001B68012B11D17B4B1B685A1C79490A60B4
:1004CC00184600F06BFE774B1B68032B02DD754B57
:1004DC0000221A60642000F02BFC7B4B1B68012B64
:1004EC0008D16F4B1B68184600F0E4FE4FF47A708D
:1004FC0000F038FCFFF724FE0346012B40F0C780C8
:10050C00674B78221A60C2E000F09CFD00F0FAFD07
:10051C006A4B1B68012B0BD1614B03221A60664B93
:10052C001B684FF47A7202FB03F3184600F0E6FBEB
:10053C00644B1B68012B11D15A4B1B685A1C59492F
:10054C000A60184600F02AFE564B1B68032B02DD8E
:10055C00544B00221A60642000F0EAFB5A4B1B68D3
:10056C00012B08D14E4B1B68184600F0A3FE4FF42C
:10057C007A7000F0F7FBFFF7E3FD0346012B40F028
:10058C008880474B78221A6083E000F08BFD00F0E6
:10059C00A1FD4A4B1B68012B0BD1414B04221A6065
:1005AC00474B1B684FF47A7202FB03F3184600F0BA
:1005BC00A5FB444B1B68012B11D13A4B1B685A1CF1
:1005CC0038490A60184600F0E9FD364B1B68032BCE
:1005DC0002DD344B00221A60642000F0A9FB3A4B78
:1005EC001B68012B08D12E4B1B68184600F062FECD
:1005FC004FF47A7000F0B6FBFFF7A2FD0346012B17
:10060C0049D1274B78221A6045E000F033FD00F009
:10061C0061FD2A4B1B68012B0BD1214B01221A6067
:10062C00254B1B684FF47A7202FB03F3184600F05B
:10063C0065FB244B1B68012B11D11A4B1B685A1CF0
:10064C0018490A60184600F0A9FD164B1B68032BCD
:10065C0002DD144B00221A60642000F069FB1A4B77
:10066C001B68012B08D10E4B1B68184600F022FEAC
:10067C004FF47A7000F076FBFFF762FD0346012B16
:10068C000BD1074B78221A6007E000BF06E000BFD1
:10069C0004E000BF02E000BF00E000BF00BF80BD6F
:1006AC0090000020BC000020C0000020C4000020EE
:1006BC00C8000020CC00002044000020980000203E
:1006CC0040000020A0000020A800002080B500AF52
:1006DC00AD4B1B688C2B00F0A7808C2B00F3CF81CB
:1006EC00822B00F02E81822B00F3C981782B0ED047
:1006FC00782B00F3C4810E2B00F0B9800E2B00F385
:10070C00BE810C2B26D00D2B00F05081B7E19F4BF6
:10071C0000221A6000F096FC00F0DCFC00F022FFD6
:10072C009A4B1B68184600F039FD0A2000F0E6FAD7
:10073C000A2000F0FDFA4FF4FA7000F013FB4FF4AE
:10074C00FA7000F029FB0A2000F040FB8E4B0C22C3
:10075C001A609BE18E4B1B68012B05D100F002FF48
:10076C004FF4FA7000F0FEFA8A4B1B68012B0DD186
:10077C004FF48061884801F0B8FA4FF40051864874
:10078C0001F0B3FA4FF4FA7000F006FB834B1B68D0
:10079C00012B11D17D4B1B685A1C7C490A601846F1
:1007AC0000F0FCFC794B1B68032B02DD774B00221D
:1007BC001A60642000F00AFBFFF7C2FC0346012B11
:1007CC0002D1714B8C221A60FFF7CCFC0346012B33
:1007DC000BD1734B1B68622B04DC714B1B68013310
:1007EC006F4A1360684B0C221A60FFF7CDFC03466E
:1007FC00012B40F046816A4B1A686A4B1B689A427F
:10080C0007DD674B1A68674B1B68D31A664A13607F
:10081C0006E0644B1A68624B1B68D31A624A136079
:10082C00594B08221A602CE1584B00221A6000F038
:10083C0021FC00F067FC00F0C1FE544B1B6818460D
:10084C0000F0ACFC0A2000F059FA0A2000F070FA13
:10085C004FF4FA7000F086FA4FF4FA7000F09CFA3C
:10086C000A2000F0B3FA484B0E221A600EE1484BF6
:10087C001B68012B05D100F0A1FE4FF4FA7000F0BB
:10088C0071FA444B1B68012B0DD14FF400614248A7
:10089C0001F02BFA4FF480413F4801F026FA4FF457
:1008AC00FA7000F079FA3D4B1B68012B11D1374BD4
:1008BC001B685A1C35490A60184600F06FFC334B14
:1008CC001B68032B02DD314B00221A60642000F000
:1008DC007DFAFFF735FC0346012B02D12A4B82220D
:1008EC001A60FFF73FFC0346012B0BD1264B0E225F
:1008FC001A602C4B1B68622B04DC2A4B1B680133DF
:10090C00284A1360FFF740FC0346012B40F0BB80E4
:10091C00244B1A68224B1B689A4207DD214B1A683C
:10092C001F4B1B68D31A204A136006E01C4B1A6835
:10093C001C4B1B68D31A1C4A1360134B08221A60F9
:10094C00A1E0124B00221A6000F0ACFB00F0F2FBAD
:10095C0000F060FE0D4B1B68184600F01FFC0A20CF
:10096C0000F0CCF90A2000F0E3F94FF4FA7000F033
:10097C00F9F94FF4FA7000F00FFA0A2000F026FA99
:10098C00014B0D221A6081E090000020BC00002079
:10099C00A8000020B000002000080140B800002092
:1009AC003C0000204000002044000020384B1B6815
:1009BC00012B05D100F02EFE4FF4FA7000F0D2F9A5
:1009CC00344B1B68012B0DD14FF48051324801F090
:1009DC008CF94FF40041304801F087F94FF4FA706C
:1009EC0000F0DAF92D4B1B68012B11D12C4B1B6835
:1009FC005A1C2B490A60184600F0D0FB284B1B6888
:100A0C00032B02DD264B00221A60642000F0DEF975
:100A1C00FFF796FB0346012B02D1224B78221A607A
:100A2C00FFF7A0FB0346012B0BD11F4B1B68622B5E
:100A3C0004DC1D4B1B6801331B4A1360194B0D2240
:100A4C001A60FFF7A1FB0346012B1ED1164B1A6847
:100A5C00164B1B689A4207DD134B1A68134B1B6825
:100A6C00D31A134A136006E0104B1A680E4B1B681E
:100A7C00D31A0F4A13600B4B08221A6005E000BF13
:100A8C0004E000BF02E000BF00E000BF00BF80BD7B
:100A9C00A8000020B000002000080140B800002091
:100AAC00BC00002090000020440000203C000020EE
:100ABC004000002080B500AF00F0FEFD00F014F8FF
:100ACC0000F09AF800F04CF8054801F053FD054B86
:100ADC0000221A60FFF7FAFDFFF782FCFAE700BF6D
:100AEC00D00000209000002080B590B000AF07F13E
:100AFC00180328220021184602F0F8F83B1D0022AA
:100B0C001A605A609A60DA601A610223BB61012391
:100B1C00BB621023FB6200237B6307F118031846AA
:100B2C0001F0FCF80346002B01D000F0E1F80F2394
:100B3C007B600023BB600023FB6000233B61002330
:100B4C007B613B1D0021184601F068FB0346002B1E
:100B5C0001D000F0CDF800BF4037BD4680BD00008D
:100B6C0080B586B000AF07F1080300221A605A6006
:100B7C009A60DA603B4600221A605A601D4B4FF0B7
:100B8C0080421A601B4B41F63F725A60194B00228F
:100B9C009A60184B0922DA60164B00221A61154B29
:100BAC0000229A61134801F095FC0346002B01D0FA
:100BBC0000F09EF84FF48053BB6007F10803194610
:100BCC000C4801F02BFE0346002B01D000F090F8EE
:100BDC0000233B6000237B603B461946054801F02F
:100BEC00F7FF0346002B01D000F082F800BF183746
:100BFC00BD4680BDD000002080B588B000AF07F1A5
:100C0C00100300221A605A609A60DA602E4B9B69BE
:100C1C002D4A43F0100393612B4B9B6903F0100397
:100C2C00FB60FB68284B9B69274A43F004039361E4
:100C3C00254B9B6903F00403BB60BB68224B9B698B
:100C4C00214A43F0080393611F4B9B6903F008038F
:100C5C007B607B6800224FF6E0711C4801F02DF898
:100C6C0000227F211A4801F028F84FF460433B61C1
:100C7C0000237B610123BB6107F110031946154862
:100C8C0000F08AFE4FF6E0733B6101237B61002389
:100C9C00BB610223FB6107F1100319460B4800F0FE
:100CAC007BFE7F233B6101237B610023BB6102231D
:100CBC00FB6107F110031946054800F06DFE00BFFB
:100CCC002037BD4680BD00BF001002400008014027
:100CDC00000C01400010014080B582B000AF78607C
:100CEC0000F08EF8FFF772FB00BF0837BD4680BDE1
:100CFC0080B400AF72B600BFFEE7000080B483B0D2
:100D0C0000AF7860074B1B687A6892FBF3F3064AD6
:100D1C001360064B00221A6000BF0C37BD4680BC26
:100D2C00704700BF4800002094000020980000206D
:100D3C0080B483B000AF7860074B1B687A6892FB75
:100D4C00F3F3064A1360064B00221A6000BF0C37FF
:100D5C00BD4680BC704700BF480000209C000020AE
:100D6C00A000002080B483B000AF7860074B1B68F4
:100D7C007A6892FBF3F3064A1360064B00221A6062
:100D8C0000BF0C37BD4680BC704700BF4800002038
:100D9C00A4000020A800002080B483B000AF7860CD
:100DAC00074B1B687A6892FBF3F3064A1360064BF9
:100DBC0000221A6000BF0C37BD4680BC704700BFD4
:100DCC0048000020AC000020B000002080B483B0AC
:100DDC0000AF7860074B1B687A6892FBF3F3064A06
:100DEC001360064B00221A6000BF0C37BD4680BC56
:100DFC00704700BF48000020B4000020B80000205D
:100E0C0080B400AF294B1B68002B0BDD274B1B68F4
:100E1C00013B264A1360254B1B68002B02DC244B3C
:100E2C0001221A60234B1B68002B0BDD214B1B6826
:100E3C00013B204A13601F4B1B68002B02DC1E4B2E
:100E4C0001221A601D4B1B68002B0BDD1B4B1B6812
:100E5C00013B1A4A1360194B1B68002B02DC184B20
:100E6C0001221A60174B1B68002B0BDD154B1B68FE
:100E7C00013B144A1360134B1B68002B02DC124B12
:100E8C0001221A60114B1B68002B0BDD0F4B1B68EA
:100E9C00013B0E4A13600D4B1B68002B02DC0C4B04
:100EAC0001221A6000BFBD4680BC70479400002030
:100EBC00980000209C000020A0000020A40000202E
:100ECC00A8000020AC000020B0000020B4000020DE
:100EDC00B800002080B485B000AF154B9B69144A54
:100EEC0043F001039361124B9B6903F00103BB6058
:100EFC00BB680F4BDB690E4A43F08053D3610C4B3C
:100F0C00DB6903F080537B607B680A4B5B68FB609A
:100F1C00FB6823F0E063FB60FB6843F08063FB60DD
:100F2C00044AFB68536000BF1437BD4680BC704751
:100F3C00001002400000014080B584B000AF786022
:100F4C007B681B68B3F1804F13D10C4BDB690B4AE8
:100F5C0043F00103D361094BDB6903F00103FB6030
:100F6C00FB68002200211C2000F0DFFC1C2000F09C
:100F7C00F8FC00BF1037BD4680BD00BF001002401A
:100F8C0080B400AFFEE780B400AFFEE780B400AFE2
:100F9C00FEE780B400AFFEE780B400AFFEE780B49C
:100FAC0000AF00BFBD4680BC704780B400AF00BF2F
:100FBC00BD4680BC704780B400AF00BFBD4680BC4E
:100FCC00704780B500AF00F0BDFB00BF80BD0000D6
:100FDC0080B500AF024801F019FB00BF80BD00BF17
:100FEC00D000002080B400AF00BFBD4680BC70476D
:100FFC0080B500AF00224FF48061114800F05DFE17
:10100C0000224FF400610E4800F057FE00224FF40E
:10101C0080510B4800F051FE00224FF4005108485B
:10102C0000F04BFE00224FF48041054800F045FED5
:10103C0000224FF40041024800F03FFE00BF80BD8B
:10104C000008014080B500AF01224FF480610848D0
:10105C0000F033FE00224FF40061054800F02DFE35
:10106C0000224FF48051024800F027FE00BF80BDE3
:10107C000008014080B500AF00224FF480610848A1
:10108C0000F01BFE01224FF40061054800F015FE34
:10109C0000224FF48051024800F00FFE00BF80BDCB
:1010AC000008014080B500AF00224FF48061084871
:1010BC0000F003FE00224FF40061054800F0FDFD36
:1010CC0001224FF48051024800F0F7FD00BF80BDB3
:1010DC000008014080B500AF01224FF400510848D0
:1010EC0000F0EBFD00224FF48041054800F0E5FDD7
:1010FC0000224FF40041024800F0DFFD00BF80BD2C
:10110C000008014080B500AF00224FF400510848A0
:10111C0000F0D3FD01224FF48041054800F0CDFDD5
:10112C0000224FF40041024800F0C7FD00BF80BD13
:10113C000008014080B500AF00224FF40051084870
:10114C0000F0BBFD00224FF48041054800F0B5FDD6
:10115C0001224FF40041024800F0AFFD00BF80BDFA
:10116C000008014080B582B000AF786001224FF6D4
:10117C00FF71084800F0A1FD074A7B6852F8233044
:10118C009BB200221946034800F097FD00BF0837B8
:10119C00BD4680BD000C0140302D000880B582B0EA
:1011AC0000AF78607B68032B7AD801A252F823F049
:1011BC00CD110008051200083D1200087512000838
:1011CC003A4B1B681846FFF7CDFF002240213848E8
:1011DC0000F073FD01228021354800F06EFD0122E4
:1011EC004FF48071324800F068FD01224FF4007119
:1011FC002F4800F062FD54E02C4B5B681846FFF75B
:10120C00B1FF012240212A4800F057FD0022802125
:10121C00274800F052FD01224FF48071244800F061
:10122C004CFD01224FF40071214800F046FD38E0DE
:10123C001E4B9B681846FFF795FF012240211C4866
:10124C0000F03BFD01228021194800F036FD002200
:10125C004FF48071164800F030FD01224FF40071FC
:10126C00134800F02AFD1CE0104BDB681846FFF712
:10127C0079FF012240210E4800F01FFD0122802140
:10128C000B4800F01AFD01224FF48071084800F061
:10129C0014FD00224FF40071054800F00EFD00E033
:1012AC0000BF00BF0837BD4680BD00BF5000002006
:1012BC000008014080B483B000AF78607B68013BCC
:1012CC00032B00F2358101A252F823F0E912000839
:1012DC0071130008031400088B140008984B1A684B
:1012EC00984B1B68D31A984A82FB03129210DB1797
:1012FC00D31A964A1360924B1A68924B1B68D11AF8
:10130C00914B83FB01239A10CB17D21A13469B00E7
:10131C0013445B00CA1A8D4B5A608D4B1A68894B6B
:10132C001B68D31A884A82FB03129210DB17D31A5C
:10133C00864A9360864B1A68824B1B68D11A824B83
:10134C0083FB01239A10CB17D21A13469B0013442C
:10135C005B00CA1A7D4BDA607A4B1B680133794A01
:10136C001360E8E0764B1A68764B1B68D31A764A02
:10137C0082FB03129210DB17D31A744A1360704B62
:10138C001A68704B1B68D11A6F4B83FB01239A10A0
:10139C00CB17D21A13469B0013445B00CA1A6B4B33
:1013AC005A606C4B1A686C4B1B68D31A664A82FBEA
:1013BC0003129210DB17D31A644A9360654B1A68B8
:1013CC00654B1B68D11A604B83FB01239A10CB171A
:1013DC00D21A13469B0013445B00CA1A5B4BDA60AB
:1013EC00584B1B680133574A13605B4B1B68013326
:1013FC00594A13609FE0564B1A68584B1B68D31A16
:10140C00514A82FB03129210DB17D31A4F4A136016
:10141C004F4B1A68514B1B68D11A4B4B83FB012362
:10142C009A10CB17D21A13469B0013445B00CA1AAE
:10143C00464B5A60424B1A68484B1B68D31A424AB7
:10144C0082FB03129210DB17D31A404A93603C4B79
:10145C001A68424B1B68D11A3B4B83FB01239A1031
:10146C00CB17D21A13469B0013445B00CA1A374B96
:10147C00DA603A4B1B680133384A13605BE0354B3A
:10148C001A68374B1B68D31A2F4A82FB031292102F
:10149C00DB17D31A2D4A13602E4B1A68304B1B687E
:1014AC00D11A294B83FB01239A10CB17D21A13465E
:1014BC009B0013445B00CA1A244B5A60204B1A68D9
:1014CC00264B1B68D31A204A82FB03129210DB179F
:1014DC00D31A1E4A93601A4B1A68204B1B68D11AF8
:1014EC00194B83FB01239A10CB17D21A13469B007E
:1014FC0013445B00CA1A154BDA60184B1B68013396
:10150C00164A1360164B1B680133154A13600F4BB8
:10151C005B68012B0EDC0B4B00221A600E4B002279
:10152C001A600E4B00221A600D4B00221A6001E06B
:10153C0000BF00E000BF00BF0C37BD4680BC704749
:10154C003C000020C000002067666666500000204A
:10155C004400002040000020C4000020C8000020EF
:10156C00CC00002080B400AF114B02221A60104B4B
:10157C0002225A600F4B1B680F4A82FB0312921017
:10158C00DB17D31A0A4A93600A4B19680A4B83FB80
:10159C0001239A10CB17D21A13469B0013445B00FD
:1015AC00CA1A034BDA6000BFBD4680BC704700BF4F
:1015BC00500000203C0000206766666680B400AFD7
:1015CC00114B03221A60104B03225A600F4B1B68FD
:1015DC000F4A82FB03129210DB17D31A0A4A93604C
:1015EC000A4B19680A4B83FB01239A10CB17D21AAA
:1015FC0013469B0013445B00CA1A034BDA6000BF0E
:10160C00BD4680BC704700BF500000204000002049
:10161C006766666680B400AF114B04221A60104BEB
:10162C0004225A600F4B1B680F4A82FB0312921064
:10163C00DB17D31A0A4A93600A4B19680A4B83FBCF
:10164C0001239A10CB17D21A13469B0013445B004C
:10165C00CA1A034BDA6000BFBD4680BC704700BF9E
:10166C00500000204400002067666666FFF7BAFC55
:10167C000B480C490C4A002302E0D458C4500433E4
:10168C00C4188C42F9D3094A094C002301E01360B9
:10169C000432A242FBD301F005FBFFF70BFA7047B3
:1016AC000000002068000020742D00086800002055
:1016BC001C010020FEE7000080B500AF084B1B6842
:1016CC00074A43F010031360032000F023F90F20A6
:1016DC0000F008F8FFF7FEFB0023184680BD00BFA2
:1016EC000020024080B582B000AF7860124B1A68BF
:1016FC00124B1B7819464FF47A73B3FBF1F3B2FB20
:10170C00F3F3184600F03BF90346002B01D00123FC
:10171C000EE07B680F2B0AD8002279684FF0FF305F
:10172C0000F003F9064A7B681360002300E00123F4
:10173C0018460837BD4680BD4C00002064000020D0
:10174C006000002080B400AF054B1B781A46054B97
:10175C001B681344034A136000BFBD4680BC70472E
:10176C00640000201801002080B400AF024B1B68FD
:10177C001846BD4680BC70471801002080B485B067
:10178C0000AF78607B6803F00703FB600C4BDB68F1
:10179C00BB60BA684FF6FF031340BB60FB681A02CC
:1017AC00BB68134343F0BF6343F40033BB60044A8C
:1017BC00BB68D36000BF1437BD4680BC704700BF08
:1017CC0000ED00E080B400AF044BDB681B0A03F0B3
:1017DC0007031846BD4680BC704700BF00ED00E013
:1017EC0080B483B000AF0346FB7197F90730002B30
:1017FC000BDBFB7903F01F02064997F907305B09F5
:10180C00012000FA02F241F8232000BF0C37BD463C
:10181C0080BC704700E100E080B483B000AF0346A9
:10182C003960FB7197F90730002B0ADB3B68DAB2A1
:10183C000C4997F907301201D2B20B4483F80023FC
:10184C000AE03B68DAB20849FB7903F00F03043B6A
:10185C001201D2B20B441A7600BF0C37BD4680BCC5
:10186C00704700BF00E100E000ED00E080B489B0FB
:10187C0000AFF860B9607A60FB6803F00703FB61A6
:10188C00FB69C3F10703042B28BF0423BB61FB696D
:10189C000433062B02D9FB69033B00E000237B6178
:1018AC004FF0FF32BB6902FA03F3DA43BB681A400C
:1018BC007B699A404FF0FF317B6901FA03F3D943FE
:1018CC007B680B40134318462437BD4680BC7047D9
:1018DC0080B582B000AF78607B68013BB3F1807F4C
:1018EC0001D301230FE00A4A7B68013B53600F21AF
:1018FC004FF0FF30FFF790FF054B00229A60044B2E
:10190C0007221A60002318460837BD4680BD00BF69
:10191C0010E000E080B582B000AF78607868FFF727
:10192C002DFF00BF0837BD4680BD80B586B000AF27
:10193C000346B9607A60FB7300237B61FFF742FFBB
:10194C0078617A68B9687869FFF790FF024697F971
:10195C000F3011461846FFF75FFF00BF1837BD4622
:10196C0080BD80B582B000AF0346FB7197F907309C
:10197C001846FFF735FF00BF0837BD4680BD80B560
:10198C0082B000AF78607868FFF7A2FF0346184674
:10199C000837BD4680BD000080B48BB000AF7860C6
:1019AC00396000237B6200233B6248E101227B6AA1
:1019BC0002FA03F3FB613B681B68FA691340BB61D5
:1019CC00BA69FB699A4240F037813B685B68A34A6D
:1019DC0093425ED0A14A934275D8A14A934258D003
:1019EC009F4A93426FD89F4A934252D09D4A93424A
:1019FC0069D89D4A93424CD09B4A934263D89B4AE8
:101A0C00934246D0994A93425DD8122B2AD8122B76
:101A1C0059D801A252F823F09F1A0008791A00082D
:101A2C008B1A0008CD1A0008D31A0008D31A000824
:101A3C00D31A0008D31A0008D31A0008D31A0008C6
:101A4C00D31A0008D31A0008D31A0008D31A0008B6
:101A5C00D31A0008D31A0008D31A0008811A0008F8
:101A6C00951A0008824A934213D02CE03B68DB683D
:101A7C003B6229E03B68DB6804333B6224E03B6853
:101A8C00DB6808333B621FE03B68DB680C333B626E
:101A9C001AE03B689B68002B02D104233B6213E0E5
:101AAC003B689B68012B05D108233B627B68FA6974
:101ABC001A6109E008233B627B68FA695A6103E00A
:101ACC0000233B6200E000BFBB69FF2B01D87B68A1
:101ADC0001E07B6804337B61BB69FF2B02D87B6A16
:101AEC009B0002E07B6A083B9B003B617B691A68A8
:101AFC000F213B6901FA03F3DB431A40396A3B6956
:101B0C0001FA03F31A437B691A603B685B6803F0C4
:101B1C008053002B00F09080564B9B69554A43F044
:101B2C0001039361534B9B6903F00103BB60BB68DA
:101B3C00514A7B6A9B08023352F82330FB607B6A64
:101B4C0003F003039B000F2202FA03F3DB43FA6852
:101B5C001340FB607B68494A93420DD07B68484A2E
:101B6C00934207D07B68474A934201D1022304E099
:101B7C00032302E0012300E000237A6A02F003024F
:101B8C0092009340FA681343FB603B497B6A9B08C5
:101B9C000233FA6841F823203B685B6803F4801336
:101BAC00002B06D0384B9A683749BB6913438B60BE
:101BBC0006E0354B9A68BB69DB43334913408B60B5
:101BCC003B685B6803F40013002B06D02E4BDA68DD
:101BDC002D49BB691343CB6006E02B4BDA68BB691C
:101BEC00DB4329491340CB603B685B6803F400334B
:101BFC00002B06D0244B5A682349BB6913434B6016
:101C0C0006E0214B5A68BB69DB431F4913404B600C
:101C1C003B685B6803F48033002B06D01A4B1A68C0
:101C2C001949BB6913430B6006E0174B1A68BB6973
:101C3C00DB43154913400B607B6A01337B623B68C5
:101C4C001A687B6A22FA03F3002B7FF4AFAE00BF55
:101C5C0000BF2C37BD4680BC704700BF000032105F
:101C6C0000003110000022100000211000001210A2
:101C7C00000011100010024000000140000801405B
:101C8C00000C0140001001400004014080B485B0FC
:101C9C0000AF78600B467B807B689A687B8813402A
:101CAC00002B02D00123FB7301E00023FB73FB7BB1
:101CBC0018461437BD4680BC704780B483B000AF63
:101CCC0078600B467B8013467B707B78002B03D0AF
:101CDC007A887B681A6103E07B881A047B681A6136
:101CEC0000BF0C37BD4680BC704780B485B000AFD8
:101CFC0078600B467B807B68DB68FB607A88FB68CE
:101D0C0013401A04FB68D9437B880B401A437B6849
:101D1C001A6100BF1437BD4680BC704780B586B0D1
:101D2C0000AF78607B68002B01D101236CE27B68EB
:101D3C001B6803F00103002B00F08780924B5B685B
:101D4C0003F00C03042B0CD08F4B5B6803F00C03DB
:101D5C00082B12D18C4B5B6803F48033B3F5803FB6
:101D6C000BD1894B1B6803F40033002B6CD07B68C0
:101D7C005B68002B68D1012346E27B685B68B3F596
:101D8C00803F06D1804B1B687F4A43F4803313603D
:101D9C002EE07B685B68002B0CD17B4B1B687A4A6E
:101DAC0023F480331360784B1B68774A23F4802329
:101DBC0013601DE07B685B68B3F5A02F0CD1724BF0
:101DCC001B68714A43F4802313606F4B1B686E4A87
:101DDC0043F4803313600BE06B4B1B686A4A23F4AB
:101DEC0080331360684B1B68674A23F480231360AD
:101DFC007B685B68002B13D0FFF7B6FC386108E0FA
:101E0C00FFF7B2FC02463B69D31A642B01D90323BA
:101E1C00FAE15D4B1B6803F40033002BF0D014E0A7
:101E2C00FFF7A2FC386108E0FFF79EFC02463B6915
:101E3C00D31A642B01D90323E6E1534B1B6803F43B
:101E4C000033002BF0D100E000BF7B681B6803F06F
:101E5C000203002B63D04C4B5B6803F00C03002B8C
:101E6C000BD0494B5B6803F00C03082B1CD1464B81
:101E7C005B6803F48033002B16D1434B1B6803F0D3
:101E8C000203002B05D07B681B69012B01D00123B9
:101E9C00BAE13D4B1B6823F0F8027B685B69DB0001
:101EAC00394913430B603AE07B681B69002B20D047
:101EBC00364B01221A60FFF757FC386108E0FFF738
:101ECC0053FC02463B69D31A022B01D903239BE135
:101EDC002D4B1B6803F00203002BF0D02A4B1B6820
:101EEC0023F0F8027B685B69DB00274913430B6026
:101EFC0015E0264B00221A60FFF736FC386108E02B
:101F0C00FFF732FC02463B69D31A022B01D903239B
:101F1C007AE11D4B1B6803F00203002BF0D17B68A8
:101F2C001B6803F00803002B3AD07B689B69002BDD
:101F3C0019D0174B01221A60FFF716FC386108E024
:101F4C00FFF712FC02463B69D31A022B01D903237B
:101F5C005AE10D4B5B6A03F00203002BF0D0012019
:101F6C0000F09AFA1CE00A4B00221A60FFF7FCFB07
:101F7C0038610FE0FFF7F8FB02463B69D31A022BDE
:101F8C0008D9032340E100BF001002400000424288
:101F9C00800442429E4B5B6A03F00203002BE9D1A2
:101FAC007B681B6803F00403002B00F0A680002361
:101FBC00FB75974BDB6903F08053002B0DD1944BD1
:101FCC00DB69934A43F08053D361914BDB6903F097
:101FDC008053BB60BB680123FB758E4B1B6803F4FD
:101FEC008073002B18D18B4B1B688A4A43F4807387
:101FFC001360FFF7B9FB386108E0FFF7B5FB024649
:10200C003B69D31A642B01D90323FDE0814B1B6878
:10201C0003F48073002BF0D07B68DB68012B06D1B6
:10202C007B4B1B6A7A4A43F0010313622DE07B68F9
:10203C00DB68002B0CD1764B1B6A754A23F001032D
:10204C001362734B1B6A724A23F0040313621CE085
:10205C007B68DB68052B0CD16D4B1B6A6C4A43F01B
:10206C00040313626A4B1B6A694A43F0010313624F
:10207C000BE0674B1B6A664A23F001031362644B47
:10208C001B6A634A23F0040313627B68DB68002B32
:10209C0015D0FFF769FB38610AE0FFF765FB0246D4
:1020AC003B69D31A41F28832934201D90323ABE046
:1020BC00574B1B6A03F00203002BEED014E0FFF722
:1020CC0053FB38610AE0FFF74FFB02463B69D31A1A
:1020DC0041F28832934201D9032395E04C4B1B6AA1
:1020EC0003F00203002BEED1FB7D012B05D1484BF5
:1020FC00DB69474A23F08053D3617B68DB69002B93
:10210C0000F08180424B5B6803F00C03082B61D01C
:10211C007B68DB69022B46D13F4B00221A60FFF72C
:10212C0023FB386108E0FFF71FFB02463B69D31A1B
:10213C00022B01D9032367E0354B1B6803F00073B6
:10214C00002BF0D17B681B6AB3F5803F08D1304B74
:10215C005B6823F400327B689B682D4913434B600A
:10216C002B4B5B6823F474127B68196A7B685B6A7F
:10217C000B43274913434B60274B01221A60FFF78F
:10218C00F3FA386108E0FFF7EFFA02463B69D31A1D
:10219C00022B01D9032337E01D4B1B6803F000739E
:1021AC00002BF0D02FE01C4B00221A60FFF7DCFA5A
:1021BC00386108E0FFF7D8FA02463B69D31A022BC4
:1021CC0001D9032320E0124B1B6803F00073002B92
:1021DC00F0D118E07B68DB69012B01D1012313E0FE
:1021EC000B4B5B68FB60FB6803F480327B681B6AFB
:1021FC009A4206D1FB6803F470127B685B6A9A42C0
:10220C0001D0012300E0002318461837BD4680BDDD
:10221C0000100240007000406000424280B584B063
:10222C0000AF786039607B68002B01D10123D0E0CE
:10223C006A4B1B6803F007033A689A4210D9674B44
:10224C001B6823F0070265493B6813430B60634B23
:10225C001B6803F007033A689A4201D00123B8E0E7
:10226C007B681B6803F00203002B20D07B681B6883
:10227C0003F00403002B05D0594B5B68584A43F418
:10228C00E06353607B681B6803F00803002B05D0E8
:10229C00534B5B68524A43F460535360504B5B683A
:1022AC0023F0F0027B689B684D4913434B607B68BD
:1022BC001B6803F00103002B40D07B685B68012B8B
:1022CC0007D1474B1B6803F40033002B15D10123B6
:1022DC007FE07B685B68022B07D1414B1B6803F0E6
:1022EC000073002B09D1012373E03D4B1B6803F0F5
:1022FC000203002B01D101236BE0394B5B6823F007
:10230C0003027B685B68364913434B60FFF72CFA7A
:10231C00F8600AE0FFF728FA0246FB68D31A41F28C
:10232C008832934201D9032353E02D4B5B6803F0B1
:10233C000C027B685B689B009A42EBD1274B1B68B5
:10234C0003F007033A689A4210D2244B1B6823F01F
:10235C00070222493B6813430B60204B1B6803F0B8
:10236C0007033A689A4201D0012332E07B681B686C
:10237C0003F00403002B08D0194B5B6823F4E062D4
:10238C007B68DB68164913434B607B681B6803F062
:10239C000803002B09D0124B5B6823F460527B6856
:1023AC001B69DB000E4913434B6000F021F8024619
:1023BC000B4B5B681B0903F00F030A49CB5C22FA39
:1023CC0003F3094A1360094B1B681846FFF78AF997
:1023DC00002318461037BD4680BD00BF00200240C8
:1023EC0000100240202D00084C000020600000204E
:1023FC0080B487B000AF0023FB600023BB600023D8
:10240C007B6100237B6000233B611E4B5B68FB60A0
:10241C00FB6803F00C03042B02D0082B03D027E03D
:10242C00194B3B6127E0FB689B0C03F00F03174A29
:10243C00D35C7B60FB6803F48033002B10D0114B12
:10244C005B685B0C03F00103114AD35CBB607B68D7
:10245C000D4A02FB03F2BB68B2FBF3F37B6104E0B1
:10246C007B680C4A02FB03F37B617B693B6102E0F6
:10247C00054B3B6100BF3B6918461C37BD4680BC11
:10248C00704700BF0010024000127A00582D00085F
:10249C00682D000800093D0080B485B000AF78605D
:1024AC000A4B1B680A4AA2FB03235B0A7A6802FBED
:1024BC0003F3FB6000BFFB685A1EFA60002BF9D1D6
:1024CC0000BF00BF1437BD4680BC70474C000020D5
:1024DC00D34D621080B582B000AF78607B68002B62
:1024EC0001D1012341E07B6893F83D30DBB2002B36
:1024FC0006D17B68002283F83C207868FEF71CFD2F
:10250C007B68022283F83D207B681A687B68043361
:10251C001946104600F06EFA7B68012283F84620BB
:10252C007B68012283F83E207B68012283F83F20E0
:10253C007B68012283F840207B68012283F84120CC
:10254C007B68012283F842207B68012283F84320B8
:10255C007B68012283F844207B68012283F84520A4
:10256C007B68012283F83D20002318460837BD46BE
:10257C0080BD000080B485B000AF78607B6893F8B4
:10258C003D30DBB2012B01D0012335E07B68022208
:10259C0083F83D207B681B68DA687B681B6842F017
:1025AC000102DA607B681B68164A934209D07B688B
:1025BC001B68B3F1804F04D07B681B68124A9342AE
:1025CC0011D17B681B689B6803F00703FB60FB68F9
:1025DC00062B10D07B681B681A687B681B6842F05E
:1025EC0001021A6007E07B681B681A687B681B682D
:1025FC0042F001021A60002318461437BD4680BC15
:10260C00704700BF002C01400004004080B582B030
:10261C0000AF78607B681B681B6903F00203022B18
:10262C0022D17B681B68DB6803F00203022B1BD1F1
:10263C007B681B686FF002021A617B6801221A77B3
:10264C007B681B689B6903F00303002B03D078683D
:10265C0000F0B4F905E0786800F0A7F9786800F0AC
:10266C00B6F97B6800221A777B681B681B6903F03C
:10267C000403042B22D17B681B68DB6803F0040382
:10268C00042B1BD17B681B686FF004021A617B68FA
:10269C0002221A777B681B689B6903F44073002B3A
:1026AC0003D0786800F08AF905E0786800F07DF9CD
:1026BC00786800F08CF97B6800221A777B681B68BD
:1026CC001B6903F00803082B22D17B681B68DB68AD
:1026DC0003F00803082B1BD17B681B686FF0080202
:1026EC001A617B6804221A777B681B68DB6903F02C
:1026FC000303002B03D0786800F060F905E07868DC
:10270C0000F053F9786800F062F97B6800221A77C0
:10271C007B681B681B6903F01003102B22D17B68AC
:10272C001B68DB6803F01003102B1BD17B681B6844
:10273C006FF010021A617B6808221A777B681B689D
:10274C00DB6903F44073002B03D0786800F036F992
:10275C0005E0786800F029F9786800F038F97B68B2
:10276C0000221A777B681B681B6903F00103012B9D
:10277C000ED17B681B68DB6803F00103012B07D1CA
:10278C007B681B686FF001021A617868FEF7A4FA87
:10279C007B681B681B6903F08003802B0ED17B6860
:1027AC001B68DB6803F08003802B07D17B681B68F8
:1027BC006FF080021A61786800F06BFA7B681B6816
:1027CC001B6903F04003402B0ED17B681B68DB6850
:1027DC0003F04003402B07D17B681B686FF040026D
:1027EC001A61786800F0FCF87B681B681B6903F0C1
:1027FC002003202B0ED17B681B68DB6803F02003C1
:10280C00202B07D17B681B686FF020021A61786857
:10281C0000F036FA00BF0837BD4680BD80B584B0E5
:10282C0000AF786039600023FB737B6893F83C3011
:10283C00012B01D10223B4E07B68012283F83C20F8
:10284C007B68022283F83D207B681B689B68BB6019
:10285C00BB6823F07703BB60BB6823F47F43BB608A
:10286C007B681B68BA689A603B681B68B3F5005FAD
:10287C003ED0B3F5005F00F28780B3F5805F00F0C7
:10288C008680B3F5805F7FD8702B1AD0702B7BD8E5
:10289C00602B50D0602B77D8502B3CD0502B73D85A
:1028AC00402B58D0402B6FD8302B64D0302B6BD8AA
:1028BC00202B60D0202B67D8002B5CD0102B5AD04B
:1028CC0062E07B6818683B6899683B685A683B68AB
:1028DC00DB6800F05EF97B681B689B68BB60BB68BB
:1028EC0043F07703BB607B681B68BA689A604FE063
:1028FC007B6818683B6899683B685A683B68DB687A
:10290C0000F047F97B681B689A687B681B6842F487
:10291C0080429A603CE07B6818683B6859683B6869
:10292C00DB681A4600F0BEF87B681B68502118461D
:10293C0000F015F92CE07B6818683B6859683B6817
:10294C00DB681A4600F0DCF87B681B6860211846CF
:10295C0000F005F91CE07B6818683B6859683B6817
:10296C00DB681A4600F09EF87B681B68402118460D
:10297C0000F0F5F80CE07B681A683B681B68194698
:10298C00104600F0ECF803E00123FB7300E000BFFD
:10299C007B68012283F83D207B68002283F83C2071
:1029AC00FB7B18461037BD4680BD80B483B000AFAA
:1029BC00786000BF0C37BD4680BC704780B483B0D4
:1029CC0000AF786000BF0C37BD4680BC704780B448
:1029DC0083B000AF786000BF0C37BD4680BC704739
:1029EC0080B483B000AF786000BF0C37BD4680BCAC
:1029FC007047000080B485B000AF786039607B68A8
:102A0C001B68FB607B68254A934207D07B68B3F157
:102A1C00804F03D07B68224A934208D1FB6823F095
:102A2C007003FB603B685B68FA681343FB607B6870
:102A3C001A4A934207D07B68B3F1804F03D07B686E
:102A4C00174A934208D1FB6823F44073FB603B6840
:102A5C00DB68FA681343FB60FB6823F080023B6879
:102A6C005B691343FB607B68FA681A603B689A6881
:102A7C007B68DA623B681A687B689A627B68074AF3
:102A8C00934203D13B681A697B681A637B68012205
:102A9C005A6100BF1437BD4680BC7047002C014002
:102AAC000004004080B487B000AFF860B9607A6071
:102ABC00FB681B6A7B61FB681B6A23F00102FB68E5
:102ACC001A62FB689B693B613B6923F0F0033B6135
:102ADC007B681B013A6913433B617B6923F00A0352
:102AEC007B617A69BB6813437B61FB683A699A61C5
:102AFC00FB687A691A6200BF1C37BD4680BC704700
:102B0C0080B487B000AFF860B9607A60FB681B6A6C
:102B1C007B61FB681B6A23F01002FB681A62FB687E
:102B2C009B693B613B6923F470433B617B681B03EE
:102B3C003A6913433B617B6923F0A0037B61BB685B
:102B4C001B017A6913437B61FB683A699A61FB68E4
:102B5C007A691A6200BF1C37BD4680BC704780B4CE
:102B6C0085B000AF786039607B689B68FB60FB6860
:102B7C0023F07003FB603A68FB68134343F00703D0
:102B8C00FB607B68FA689A6000BF1437BD4680BC56
:102B9C00704780B487B000AFF860B9607A603B6072
:102BAC00FB689B687B617B6923F47F437B613B689B
:102BBC001A027B681A43BB6813437A6913437B611F
:102BCC00FB687A699A6000BF1C37BD4680BC7047B1
:102BDC0080B485B000AF786039607B6893F83C3086
:102BEC00012B01D1022341E07B68012283F83C20B8
:102BFC007B68022283F83D207B681B685B68FB6066
:102C0C007B681B689B68BB60FB6823F07003FB60F0
:102C1C003B681B68FA681343FB607B681B68FA68A7
:102C2C005A607B681B68144A934209D07B681B6806
:102C3C00B3F1804F04D07B681B68104A93420CD1CF
:102C4C00BB6823F08003BB603B685B68BA681343C6
:102C5C00BB607B681B68BA689A607B68012283F84A
:102C6C003D207B68002283F83C2000231846143753
:102C7C00BD4680BC704700BF002C014000040040E2
:102C8C0080B483B000AF786000BF0C37BD4680BC09
:102C9C00704780B483B000AF786000BF0C37BD467E
:102CAC0080BC704770B500260C4D0D4C641BA410F5
:102CBC00A64209D100F022F800260A4D0A4C641BEA
:102CCC00A410A64205D170BD55F8043B98470136B7
:102CDC00EEE755F8043B98470136F2E76C2D0008F7
:102CEC006C2D00086C2D0008702D00080346024462
:102CFC00934200D1704703F8011BF9E7F8B500BF08
:102D0C00F8BC08BC9E467047F8B500BFF8BC08BCC0
:042D1C009E46704718
:102D2000000000000000000001020304060708097B
:102D30003F000000060000005B0000004F000000A4
:102D4000660000006D0000007D000000070000002C
:102D50007F0000006F000000020304050607080959
:0C2D60000A0B0C0D0E0F101001020000F9
:042D6C003101000829
:042D70000D01000849
:102D7400010000000100000001000000010000004B
:102D8400C800000001000000010000000100000074
:102D940001000000C8000000010000000100000064
:102DA4000100000001000000C80000000500000050
:102DB40002000000030000000A0000000024F400E8
:102DC40001000000020000000300000004000000F5
:082DD4001000000001000000E6
:040000050800167960
:00000001FF
