:020000040800F2
:1000000000280020C1140008190F00081F0F000865
:10001000250F00082B0F0008310F0008000000001A
:10002000000000000000000000000000370F000882
:10003000430F0008000000004F0F00085B0F00088E
:100040000915000809150008091500080915000818
:100050000915000809150008091500080915000808
:1000600009150008091500080915000809150008F8
:1000700009150008091500080915000809150008E8
:1000800009150008091500080915000809150008D8
:1000900009150008091500080915000809150008C8
:1000A00009150008091500080915000809150008B8
:1000B000690F000809150008000000000915000874
:1000C00009150008000000000000000009150008E4
:1000D00000000000091500080915000800000000D4
:1000E000091500080915000809150008000000009E
:1000F0000000000000000000000000000000000000
:0C01000000000000000000005FF808F1A3
:10010C0010B5054C237833B9044B13B10448AFF345
:10011C0000800123237010BD680000200000000047
:10012C00502B000808B5034B1BB103490348AFF330
:10013C00008008BD000000006C000020502B00085F
:10014C0080B400AF064B1B68012B04D1044B00227A
:10015C001A60012300E000231846BD4680BC70479E
:10016C008400002080B400AF064B1B68012B04D127
:10017C00044B00221A60012300E000231846BD4600
:10018C0080BC70478800002080B400AF064B1B6811
:10019C00012B04D1044B00221A60012300E0002340
:1001AC001846BD4680BC70478C00002080B400AF60
:1001BC00034B01221A6000BFBD4680BC704700BFD4
:1001CC008400002080B400AF034B01221A6000BFF2
:1001DC00BD4680BC704700BF8800002080B400AFD3
:1001EC00034B01221A6000BFBD4680BC704700BFA4
:1001FC008C00002080B500AF1F4B1B681F4A13609A
:10020C001F4B1B681C4A13604FF400511D4801F032
:10021C0061FC03461A461A4B1A60184B1A68164BA7
:10022C001B689A4225D1144B1A68154B1B689A42CD
:10023C001FD1154B1A68124B1B689A420DD0104BEC
:10024C001B68114A13600E4B1B68002B11D1FFF772
:10025C00ADFF0E4BC8221A600BE00C4B1B68013B28
:10026C000A4A1360094B1B68002B02D1064B012272
:10027C001A6000BF80BD00BF0400002000000020F9
:10028C0008000020001001400C000020100000208D
:10029C0080B500AF1F4B1B681F4A13601F4B1B68B8
:1002AC001C4A13604FF480411D4801F013FC0346B7
:1002BC001A461A4B1A60184B1A68164B1B689A424E
:1002CC0025D1144B1A68154B1B689A421FD1154B3C
:1002DC001A68124B1B689A420DD0104B1B68114ABE
:1002EC0013600E4B1B68002B11D1FFF76BFF0E4BED
:1002FC00C8221A600BE00C4B1B68013B0A4A1360C6
:10030C00094B1B68002B02D1064B01221A6000BF5F
:10031C0080BD00BF18000020140000201C0000202D
:10032C0000100140200000202400002080B500AF08
:10033C001F4B1B681F4A13601F4B1B681C4A136022
:10034C004FF400411D4801F0C5FB03461A461A4BF9
:10035C001A60184B1A68164B1B689A4225D1144B1D
:10036C001A68154B1B689A421FD1154B1A68124B11
:10037C001B689A420DD0104B1B68114A13600E4B30
:10038C001B68002B11D1FFF729FF0E4BC8221A60F6
:10039C000BE00D4B1B68013B0B4A13600A4B1B68AF
:1003AC00002B02D1064B01221A6000BF80BD00BF9A
:1003BC002C000020280000203000002000100140FC
:1003CC0034000020240000203800002080B500AF4D
:1003DC00FFF710FFFFF75CFFFFF7A8FF00BF80BD22
:1003EC0080B500AFA14B1B68042B00F2338101A236
:1003FC0052F823F0150400085D040008DF0400081F
:10040C0061050008E105000800F0B8FD984B0022DA
:10041C001A60984B00221A60974B00221A60974B77
:10042C0000221A60964B00221A60904B01221A602F
:10043C00944B1B684FF47A7202FB03F3184600F0DE
:10044C0023FC0A2000F03AFC0A2000F051FC0AE1DF
:10045C0000F0BEFD00F034FE8B4B1B68012B0BD162
:10046C00824B02221A60894B1B684FF47A7202FB92
:10047C0003F3184600F008FC854B1B68012B11D1C7
:10048C007B4B1B685A1C7A490A60184600F04CFEDC
:10049C00774B1B68032B02DD754B00221A6064201E
:1004AC0000F00CFC7B4B1B68012B08D16F4B1B68BD
:1004BC00184600F0C5FE4FF47A7000F019FCFFF7F7
:1004CC003FFE0346012B40F0C780684B78221A6030
:1004DC00C2E000F07DFD00F0DBFD6B4B1B68012BD7
:1004EC000BD1624B03221A60664B1B684FF47A7275
:1004FC0002FB03F3184600F0C7FB654B1B68012B8E
:10050C0011D15B4B1B685A1C59490A60184600F004
:10051C000BFE574B1B68032B02DD554B00221A6058
:10052C00642000F0CBFB5B4B1B68012B08D14F4BBD
:10053C001B68184600F084FE4FF47A7000F0D8FB6C
:10054C00FFF7FEFD0346012B40F08880474B7822D5
:10055C001A6083E000F06CFD00F082FD4A4B1B68D2
:10056C00012B0BD1414B04221A60484B1B684FF4F2
:10057C007A7202FB03F3184600F086FB444B1B68AF
:10058C00012B11D13A4B1B685A1C39490A60184689
:10059C0000F0CAFD364B1B68032B02DD344B0022E6
:1005AC001A60642000F08AFB3A4B1B68012B08D1BF
:1005BC002E4B1B68184600F043FE4FF47A7000F087
:1005CC0097FBFFF7BDFD0346012B49D1274B782242
:1005DC001A6045E000F014FD00F042FD2A4B1B6848
:1005EC00012B0BD1214B01221A60264B1B684FF4B7
:1005FC007A7202FB03F3184600F046FB244B1B688F
:10060C00012B11D11A4B1B685A1C19490A60184648
:10061C0000F08AFD164B1B68032B02DD144B0022E5
:10062C001A60642000F04AFB1A4B1B68012B08D19E
:10063C000E4B1B68184600F003FE4FF47A7000F066
:10064C0057FBFFF77DFD0346012B0BD1074B78229F
:10065C001A6007E000BF06E000BF04E000BF02E044
:10066C0000BF00E000BF00BF80BD00BF90000020B5
:10067C00BC000020C0000020C4000020C8000020E6
:10068C00CC000020440000209800002040000020F6
:10069C00A0000020A800002080B500AFA34B1B6871
:1006AC008C2B00F09F808C2B00F3AF81822B00F001
:1006BC001A81822B00F3A981782B0ED0782B00F3B2
:1006CC00A4810E2B00F0B1800E2B00F39E810C2B1D
:1006DC0026D00D2B00F03C8197E1954B00221A603F
:1006EC0000F076FC00F0BCFC00F060FE904B1B6848
:1006FC00184600F019FD0A2000F0C6FA0A2000F096
:10070C00DDFA4FF4FA7000F0F3FA4FF4FA7000F0DF
:10071C0009FB0A2000F020FB844B0C221A607BE1C1
:10072C00844B1B68012B05D100F040FE4FF4FA708E
:10073C0000F0DEFA804B1B68012B0DD14FF4806169
:10074C007E4801F0F6F94FF400517C4801F0F1F9C4
:10075C004FF4FA7000F0E6FA794B1B68012B11D1BB
:10076C00734B1B685A1C72490A60184600F0DCFC7B
:10077C006F4B1B68032B02DD6D4B00221A6064204B
:10078C0000F0EAFAFFF7DCFC0346012B02D1674BC1
:10079C008C221A60FFF7E6FC0346012B11D1694B42
:1007AC001B68622B05DD684B1B680133654A1360BF
:1007BC0004E0644B1B680133624A13605B4B0C22F0
:1007CC001A60FFF7E1FC0346012B40F020815D4BE2
:1007DC001A685E4B1B68D31A5C4A1360534B012298
:1007EC001A6014E1524B00221A6000F009FC00F070
:1007FC004FFC00F007FE4E4B1B68184600F094FCB3
:10080C000A2000F041FA0A2000F058FA4FF4FA706E
:10081C0000F06EFA4FF4FA7000F084FA0A2000F03F
:10082C009BFA424B0E221A60F6E0424B1B68012BDE
:10083C0005D100F0E7FD4FF4FA7000F059FA3E4B89
:10084C001B68012B0DD14FF400613C4801F071F98C
:10085C004FF48041394801F06CF94FF4FA7000F014
:10086C0061FA374B1B68012B11D1314B1B685A1C99
:10087C002F490A60184600F057FC2D4B1B68032BC0
:10088C0002DD2B4B00221A60642000F065FAFFF7A2
:10089C0057FC0346012B02D1244B82221A60FFF72E
:1008AC0061FC0346012B0DD1204B0E221A60274B05
:1008BC001A68244B1B689A4204DA244B1B680133D8
:1008CC00224A1360FFF760FC0346012B40F0A18025
:1008DC001C4B1A681D4B1B68D31A1B4A1360134B15
:1008EC0001221A6095E0124B00221A6000F0A0FB66
:1008FC0000F0E6FB00F0B2FD0D4B1B68184600F053
:10090C0013FC0A2000F0C0F90A2000F0D7F94FF4CC
:10091C00FA7000F0EDF94FF4FA7000F003FA0A20C7
:10092C0000F01AFA014B0D221A6075E090000020BD
:10093C00BC000020A8000020B000002000080140EE
:10094C00B80000203C0000204400002040000020A3
:10095C00324B1B68012B05D100F080FD4FF4FA706F
:10096C0000F0C6F92E4B1B68012B0DD14FF48051B2
:10097C002C4801F0DEF84FF400412A4801F0D9F878
:10098C004FF4FA7000F0CEF9274B1B68012B11D1F4
:10099C00264B1B685A1C25490A60184600F0C4FBFC
:1009AC00224B1B68032B02DD204B00221A606420B3
:1009BC0000F0D2F9FFF7C4FB0346012B02D11C4B0C
:1009CC0078221A60FFF7CEFB0346012B0DD1194B91
:1009DC001A68194B1B689A4204DA164B1B680133D0
:1009EC00144A1360124B0D221A60FFF7CDFB03461D
:1009FC00012B10D1104B1A680E4B1B68D31A0F4ADF
:100A0C0013600B4B01221A6005E000BF04E000BF2D
:100A1C0002E000BF00E000BF00BF80BDA8000020C6
:100A2C00B000002000080140B8000020BC000020ED
:100A3C0090000020440000203C00002040000020DA
:100A4C0080B500AF00F05CFD00F014F800F09AF8EF
:100A5C0000F04CF8054801F0B1FC054B00221A607F
:100A6C00FFF71AFEFFF7BCFCFAE700BFD00000202E
:100A7C009000002080B590B000AF07F11803282239
:100A8C000021184602F056F83B1D00221A605A60ED
:100A9C009A60DA601A610223BB610123BB621023E6
:100AAC00FB6200237B6307F11803184601F05AF828
:100ABC000346002B01D000F0E1F80F237B600023EC
:100ACC00BB600023FB6000233B6100237B613B1D6B
:100ADC000021184601F0C6FA0346002B01D000F0A5
:100AEC00CDF800BF4037BD4680BD000080B586B054
:100AFC0000AF07F1080300221A605A609A60DA60AE
:100B0C003B4600221A605A601D4B4FF080421A601F
:100B1C001B4B41F63F725A60194B00229A60184BDE
:100B2C000922DA60164B00221A61154B00229A61D9
:100B3C00134801F0F3FB0346002B01D000F09EF8A4
:100B4C004FF48053BB6007F1080319460C4801F0C1
:100B5C0089FD0346002B01D000F090F800233B6088
:100B6C0000237B603B461946054801F055FF0346C0
:100B7C00002B01D000F082F800BF1837BD4680BDB5
:100B8C00D000002080B588B000AF07F11003002220
:100B9C001A605A609A60DA602E4B9B692D4A43F0BA
:100BAC00100393612B4B9B6903F01003FB60FB68F4
:100BBC00284B9B69274A43F004039361254B9B699F
:100BCC0003F00403BB60BB68224B9B69214A43F0D2
:100BDC00080393611F4B9B6903F008037B607B68E0
:100BEC0000224FF6E0711C4800F08BFF00227F21A1
:100BFC001A4800F086FF4FF460433B6100237B6191
:100C0C000123BB6107F110031946154800F0E8FDFC
:100C1C004FF6E0733B6101237B610023BB61022330
:100C2C00FB6107F1100319460B4800F0D9FD7F2337
:100C3C003B6101237B610023BB610223FB6107F154
:100C4C0010031946054800F0CBFD00BF2037BD4608
:100C5C0080BD00BF0010024000080140000C0140A4
:100C6C000010014080B582B000AF786000F08EF8C3
:100C7C00FFF7ACFB00BF0837BD4680BD80B400AFAA
:100C8C0072B600BFFEE7000080B483B000AF78609E
:100C9C00074B1B687A6892FBF3F3064A1360064B0A
:100CAC0000221A6000BF0C37BD4680BC704700BFE5
:100CBC0048000020940000209800002080B483B0ED
:100CCC0000AF7860074B1B687A6892FBF3F3064A17
:100CDC001360064B00221A6000BF0C37BD4680BC67
:100CEC00704700BF480000209C000020A00000209E
:100CFC0080B483B000AF7860074B1B687A6892FBB6
:100D0C00F3F3064A1360064B00221A6000BF0C373F
:100D1C00BD4680BC704700BF48000020A4000020E6
:100D2C00A800002080B483B000AF7860074B1B682C
:100D3C007A6892FBF3F3064A1360064B00221A60A2
:100D4C0000BF0C37BD4680BC704700BF4800002078
:100D5C00AC000020B000002080B483B000AF7860FD
:100D6C00074B1B687A6892FBF3F3064A1360064B39
:100D7C0000221A6000BF0C37BD4680BC704700BF14
:100D8C0048000020B4000020B800002080B400AF60
:100D9C00294B1B68002B0BDD274B1B68013B264A9C
:100DAC001360254B1B68002B02DC244B01221A60BC
:100DBC00234B1B68002B0BDD214B1B68013B204A8E
:100DCC0013601F4B1B68002B02DC1E4B01221A60A8
:100DDC001D4B1B68002B0BDD1B4B1B68013B1A4A80
:100DEC001360194B1B68002B02DC184B01221A6094
:100DFC00174B1B68002B0BDD154B1B68013B144A72
:100E0C001360134B1B68002B02DC124B01221A607F
:100E1C00114B1B68002B0BDD0F4B1B68013B0E4A63
:100E2C0013600D4B1B68002B02DC0C4B01221A606B
:100E3C0000BFBD4680BC7047940000209800002085
:100E4C009C000020A0000020A4000020A80000208E
:100E5C00AC000020B0000020B4000020B80000203E
:100E6C0080B485B000AF154B9B69144A43F0010365
:100E7C009361124B9B6903F00103BB60BB680F4B82
:100E8C00DB690E4A43F08053D3610C4BDB6903F0F2
:100E9C0080537B607B680A4B5B68FB60FB6823F0CC
:100EAC00E063FB60FB6843F08063FB60044AFB6813
:100EBC00536000BF1437BD4680BC70470010024021
:100ECC000000014080B584B000AF78607B681B687F
:100EDC00B3F1804F13D10C4BDB690B4A43F0010388
:100EEC00D361094BDB6903F00103FB60FB68002253
:100EFC0000211C2000F03DFC1C2000F056FC00BF23
:100F0C001037BD4680BD00BF0010024080B400AF5A
:100F1C00FEE780B400AFFEE780B400AFFEE780B41C
:100F2C0000AFFEE780B400AFFEE780B400AF00BFB7
:100F3C00BD4680BC704780B400AF00BFBD4680BCCE
:100F4C00704780B400AF00BFBD4680BC704780B511
:100F5C0000AF00F01BFB00BF80BD000080B500AFF0
:100F6C00024801F077FA00BF80BD00BFD00000201E
:100F7C0080B400AF00BFBD4680BC704780B500AFE9
:100F8C0000224FF48061114800F0BBFD00224FF4A9
:100F9C0000610E4800F0B5FD00224FF480510B4863
:100FAC0000F0AFFD00224FF40051084800F0A9FDFD
:100FBC0000224FF48041054800F0A3FD00224FF4BD
:100FCC000041024800F09DFD00BF80BD00080140BB
:100FDC0080B500AF01224FF48061084800F091FD0C
:100FEC0000224FF40061054800F08BFD00224FF405
:100FFC008051024800F085FD00BF80BD0008014013
:10100C0080B500AF00224FF48061084800F079FDF4
:10101C0001224FF40061054800F073FD00224FF4EB
:10102C008051024800F06DFD00BF80BD00080140FA
:10103C0080B500AF00224FF48061084800F061FDDC
:10104C0000224FF40061054800F05BFD01224FF4D3
:10105C008051024800F055FD00BF80BD00080140E2
:10106C0080B500AF01224FF40051084800F049FD53
:10107C0000224FF48041054800F043FD00224FF45C
:10108C000041024800F03DFD00BF80BD000801405A
:10109C0080B500AF00224FF40051084800F031FD3C
:1010AC0001224FF48041054800F02BFD00224FF443
:1010BC000041024800F025FD00BF80BD0008014042
:1010CC0080B500AF00224FF40051084800F019FD24
:1010DC0000224FF48041054800F013FD01224FF42B
:1010EC000041024800F00DFD00BF80BD000801402A
:1010FC0080B582B000AF786001224FF6FF710848CE
:10110C0000F0FFFC074A7B6852F823309BB20022A8
:10111C001946034800F0F5FC00BF0837BD4680BDFA
:10112C00000C0140782B000880B582B000AF7860CD
:10113C007B68032B7AD801A252F823F059110008CE
:10114C0091110008C9110008011200083A4B1B68E4
:10115C001846FFF7CDFF00224021384800F0D1FCA3
:10116C0001228021354800F0CCFC01224FF4807123
:10117C00324800F0C6FC01224FF400712F4800F0F9
:10118C00C0FC54E02C4B5B681846FFF7B1FF012202
:10119C0040212A4800F0B5FC00228021274800F0AD
:1011AC00B0FC01224FF48071244800F0AAFC01220B
:1011BC004FF40071214800F0A4FC38E01E4B9B68F2
:1011CC001846FFF795FF012240211C4800F099FCBE
:1011DC0001228021194800F094FC00224FF4807108
:1011EC00164800F08EFC01224FF40071134800F0F9
:1011FC0088FC1CE0104BDB681846FFF779FF0122D6
:10120C0040210E4800F07DFC012280210B4800F0AB
:10121C0078FC01224FF48071084800F072FC002227
:10122C004FF40071054800F06CFC00E000BF00BFFB
:10123C000837BD4680BD00BF5000002000080140AB
:10124C0080B483B000AF78607B68013B032B00F265
:10125C00958001A252F823F075120008AD12000817
:10126C00EF12000827130008484B1A68484B1B68FC
:10127C00D31A484A1360484B1A68454B1B68D31A5B
:10128C00444A5360434B1B68424A9360414B5B6832
:10129C00404AD3603E4B1B6801333D4A136070E0FB
:1012AC003A4B1A683A4B1B68D31A3A4A13603B4BB9
:1012BC001A683B4B1B68D31A364A5360354B1B6874
:1012CC00344A9360334B5B68324AD360304B1B68B3
:1012DC0001332F4A1360324B1B680133304A1360C1
:1012EC004FE02D4B1A682F4B1B68D31A294A1360F9
:1012FC00264B1A682B4B1B68D31A264A5360254B76
:10130C001B68244A9360234B5B68224AD360254BAD
:10131C001B680133234A136033E01C4B1A68214BC2
:10132C001B68D31A1B4A53601C4B1A681E4B1B6854
:10133C00D31A184A1360174B5B68164AD360154BC7
:10134C001B68144A9360174B1B680133154A1360D2
:10135C00154B1B680133144A13600E4B1B68012B91
:10136C000EDC0B4B00221A600D4B00221A600D4B49
:10137C0000221A600C4B00221A6001E000BF00E052
:10138C0000BF00BF0C37BD4680BC70473C0000203E
:10139C00C00000205000002044000020400000202D
:1013AC00C4000020C8000020CC00002080B400AF96
:1013BC00114B02221A60104B02225A600F4B1B6811
:1013CC000F4A82FB03129210DB17D31A0A4A93605E
:1013DC000A4B19680A4B83FB01239A10CB17D21ABC
:1013EC0013469B0013445B00CA1A034BDA6000BF20
:1013FC00BD4680BC704700BF500000203C00002060
:10140C006766666680B400AF114B03221A60104BFE
:10141C0003225A600F4B1B680F4A82FB0312921077
:10142C00DB17D31A0A4A93600A4B19680A4B83FBE1
:10143C0001239A10CB17D21A13469B0013445B005E
:10144C00CA1A034BDA6000BFBD4680BC704700BFB0
:10145C0050000020400000206766666680B400AF34
:10146C00114B04221A60104B04225A600F4B1B685C
:10147C000F4A82FB03129210DB17D31A0A4A9360AD
:10148C000A4B19680A4B83FB01239A10CB17D21A0B
:10149C0013469B0013445B00CA1A034BDA6000BF6F
:1014AC00BD4680BC704700BF5000002044000020A7
:1014BC0067666666FFF75CFD0B480C490C4A002317
:1014CC0002E0D458C4500433C4188C42F9D3094AEE
:1014DC00094C002301E013600432A242FBD301F05B
:1014EC0005FBFFF7ADFA70470000002068000020F4
:1014FC00BC2B0008680000201C010020FEE7000047
:10150C0080B500AF084B1B68074A43F0100313600B
:10151C00032000F023F90F2000F008F8FFF7A0FCDF
:10152C000023184680BD00BF0020024080B582B069
:10153C0000AF7860124B1A68124B1B7819464FF4A7
:10154C007A73B3FBF1F3B2FBF3F3184600F03BF9FB
:10155C000346002B01D001230EE07B680F2B0AD829
:10156C00002279684FF0FF3000F003F9064A7B68DF
:10157C001360002300E0012318460837BD4680BDE8
:10158C004C000020640000206000002080B400AFFC
:10159C00054B1B781A46054B1B681344034A136012
:1015AC0000BFBD4680BC70476400002018010020BD
:1015BC0080B400AF024B1B681846BD4680BC704718
:1015CC001801002080B485B000AF78607B6803F010
:1015DC000703FB600C4BDB68BB60BA684FF6FF037C
:1015EC001340BB60FB681A02BB68134343F0BF6334
:1015FC0043F40033BB60044ABB68D36000BF1437AC
:10160C00BD4680BC704700BF00ED00E080B400AF69
:10161C00044BDB681B0A03F007031846BD4680BC6D
:10162C00704700BF00ED00E080B483B000AF03460C
:10163C00FB7197F90730002B0BDBFB7903F01F02D2
:10164C00064997F907305B09012000FA02F241F8CC
:10165C00232000BF0C37BD4680BC704700E100E082
:10166C0080B483B000AF03463960FB7197F9073043
:10167C00002B0ADB3B68DAB20C4997F907301201F0
:10168C00D2B20B4483F800230AE03B68DAB2084973
:10169C00FB7903F00F03043B1201D2B20B441A7610
:1016AC0000BF0C37BD4680BC704700BF00E100E0B6
:1016BC0000ED00E080B489B000AFF860B9607A60EA
:1016CC00FB6803F00703FB61FB69C3F10703042B01
:1016DC0028BF0423BB61FB690433062B02D9FB69C9
:1016EC00033B00E000237B614FF0FF32BB6902FA41
:1016FC0003F3DA43BB681A407B699A404FF0FF3121
:10170C007B6901FA03F3D9437B680B4013431846FA
:10171C002437BD4680BC704780B582B000AF78607E
:10172C007B68013BB3F1807F01D301230FE00A4AB0
:10173C007B68013B53600F214FF0FF30FFF790FFA8
:10174C00054B00229A60044B07221A6000231846AE
:10175C000837BD4680BD00BF10E000E080B582B008
:10176C0000AF78607868FFF72DFF00BF0837BD46E3
:10177C0080BD80B586B000AF0346B9607A60FB735C
:10178C0000237B61FFF742FF78617A68B96878695A
:10179C00FFF790FF024697F90F3011461846FFF7F6
:1017AC005FFF00BF1837BD4680BD80B582B000AF6B
:1017BC000346FB7197F907301846FFF735FF00BF5A
:1017CC000837BD4680BD80B582B000AF78607868C0
:1017DC00FFF7A2FF034618460837BD4680BD000040
:1017EC0080B48BB000AF7860396000237B6200233B
:1017FC003B6248E101227B6A02FA03F3FB613B681E
:10180C001B68FA691340BB61BA69FB699A4240F0E4
:10181C0037813B685B68A34A93425ED0A14A9342EE
:10182C0075D8A14A934258D09F4A93426FD89F4A89
:10183C00934252D09D4A934269D89D4A93424CD0D0
:10184C009B4A934263D89B4A934246D0994A93420F
:10185C005DD8122B2AD8122B59D801A252F823F09A
:10186C00E7180008C1180008D3180008151900085B
:10187C001B1900081B1900081B1900081B1900086C
:10188C001B1900081B1900081B1900081B1900085C
:10189C001B1900081B1900081B1900081B1900084C
:1018AC001B190008C9180008DD180008824A934269
:1018BC0013D02CE03B68DB683B6229E03B68DB68BB
:1018CC0004333B6224E03B68DB6808333B621FE077
:1018DC003B68DB680C333B621AE03B689B68002B6F
:1018EC0002D104233B6213E03B689B68012B05D1BA
:1018FC0008233B627B68FA691A6109E008233B62A2
:10190C007B68FA695A6103E000233B6200E000BF88
:10191C00BB69FF2B01D87B6801E07B6804337B61DA
:10192C00BB69FF2B02D87B6A9B0002E07B6A083BF9
:10193C009B003B617B691A680F213B6901FA03F339
:10194C00DB431A40396A3B6901FA03F31A437B699A
:10195C001A603B685B6803F08053002B00F09080AA
:10196C00564B9B69554A43F001039361534B9B695A
:10197C0003F00103BB60BB68514A7B6A9B080233CE
:10198C0052F82330FB607B6A03F003039B000F22A9
:10199C0002FA03F3DB43FA681340FB607B68494AA5
:1019AC0093420DD07B68484A934207D07B68474AE4
:1019BC00934201D1022304E0032302E0012300E05F
:1019CC0000237A6A02F0030292009340FA681343F0
:1019DC00FB603B497B6A9B080233FA6841F8232081
:1019EC003B685B6803F48013002B06D0384B9A6875
:1019FC003749BB6913438B6006E0354B9A68BB696A
:101A0C00DB43334913408B603B685B6803F4001382
:101A1C00002B06D02E4BDA682D49BB691343CB60E3
:101A2C0006E02B4BDA68BB69DB4329491340CB60DA
:101A3C003B685B6803F40033002B06D0244B5A68D8
:101A4C002349BB6913434B6006E0214B5A68BB69C1
:101A5C00DB431F4913404B603B685B6803F48033E6
:101A6C00002B06D01A4B1A681949BB6913430B603B
:101A7C0006E0174B1A68BB69DB43154913400B6032
:101A8C007B6A01337B623B681A687B6A22FA03F338
:101A9C00002B7FF4AFAE00BF00BF2C37BD4680BC1F
:101AAC00704700BF000032100000311000002210FF
:101ABC000000211000001210000011100010024054
:101ACC000000014000080140000C014000100140E2
:101ADC000004014080B485B000AF78600B467B8079
:101AEC007B689A687B881340002B02D00123FB7320
:101AFC0001E00023FB73FB7B18461437BD4680BC0A
:101B0C00704780B483B000AF78600B467B8013467F
:101B1C007B707B78002B03D07A887B681A6103E09A
:101B2C007B881A047B681A6100BF0C37BD4680BCE9
:101B3C00704780B485B000AF78600B467B807B68C3
:101B4C00DB68FB607A88FB6813401A04FB68D94396
:101B5C007B880B401A437B681A6100BF1437BD4663
:101B6C0080BC704780B586B000AF78607B68002B76
:101B7C0001D101236CE27B681B6803F00103002B8D
:101B8C0000F08780924B5B6803F00C03042B0CD0A5
:101B9C008F4B5B6803F00C03082B12D18C4B5B68EA
:101BAC0003F48033B3F5803F0BD1894B1B6803F4EE
:101BBC000033002B6CD07B685B68002B68D1012351
:101BCC0046E27B685B68B3F5803F06D1804B1B68AF
:101BDC007F4A43F4803313602EE07B685B68002BF4
:101BEC000CD17B4B1B687A4A23F480331360784BFF
:101BFC001B68774A23F4802313601DE07B685B68C5
:101C0C00B3F5A02F0CD1724B1B68714A43F480239F
:101C1C0013606F4B1B686E4A43F4803313600BE008
:101C2C006B4B1B686A4A23F480331360684B1B6848
:101C3C00674A23F4802313607B685B68002B13D006
:101C4C00FFF7B6FC386108E0FFF7B2FC02463B69CF
:101C5C00D31A642B01D90323FAE15D4B1B6803F4FF
:101C6C000033002BF0D014E0FFF7A2FC386108E041
:101C7C00FFF79EFC02463B69D31A642B01D9032360
:101C8C00E6E1534B1B6803F40033002BF0D100E06A
:101C9C0000BF7B681B6803F00203002B63D04C4B26
:101CAC005B6803F00C03002B0BD0494B5B6803F013
:101CBC000C03082B1CD1464B5B6803F48033002BC0
:101CCC0016D1434B1B6803F00203002B05D07B6835
:101CDC001B69012B01D00123BAE13D4B1B6823F09A
:101CEC00F8027B685B69DB00394913430B603AE00F
:101CFC007B681B69002B20D0364B01221A60FFF742
:101D0C0057FC386108E0FFF753FC02463B69D31AD5
:101D1C00022B01D903239BE12D4B1B6803F002031B
:101D2C00002BF0D02A4B1B6823F0F8027B685B6910
:101D3C00DB00274913430B6015E0264B00221A6089
:101D4C00FFF736FC386108E0FFF732FC02463B69CE
:101D5C00D31A022B01D903237AE11D4B1B6803F024
:101D6C000203002BF0D17B681B6803F00803002BE7
:101D7C003AD07B689B69002B19D0174B01221A6053
:101D8C00FFF716FC386108E0FFF712FC02463B69CE
:101D9C00D31A022B01D903235AE10D4B5B6A03F0D2
:101DAC000203002BF0D0012000F09AFA1CE00A4B41
:101DBC0000221A60FFF7FCFB38610FE0FFF7F8FB1D
:101DCC0002463B69D31A022B08D9032340E100BF1A
:101DDC000010024000004242800442429E4B5B6A6B
:101DEC0003F00203002BE9D17B681B6803F00403AA
:101DFC00002B00F0A6800023FB75974BDB6903F0EA
:101E0C008053002B0DD1944BDB69934A43F08053E4
:101E1C00D361914BDB6903F08053BB60BB6801233A
:101E2C00FB758E4B1B6803F48073002B18D18B4B06
:101E3C001B688A4A43F480731360FFF7B9FB38615F
:101E4C0008E0FFF7B5FB02463B69D31A642B01D9B6
:101E5C000323FDE0814B1B6803F48073002BF0D04F
:101E6C007B68DB68012B06D17B4B1B6A7A4A43F0FB
:101E7C00010313622DE07B68DB68002B0CD1764BE1
:101E8C001B6A754A23F001031362734B1B6A724A77
:101E9C0023F0040313621CE07B68DB68052B0CD178
:101EAC006D4B1B6A6C4A43F0040313626A4B1B6A4A
:101EBC00694A43F0010313620BE0674B1B6A664AE5
:101ECC0023F001031362644B1B6A634A23F004037F
:101EDC0013627B68DB68002B15D0FFF769FB386158
:101EEC000AE0FFF765FB02463B69D31A41F28832E0
:101EFC00934201D90323ABE0574B1B6A03F0020357
:101F0C00002BEED014E0FFF753FB38610AE0FFF72B
:101F1C004FFB02463B69D31A41F28832934201D9F6
:101F2C00032395E04C4B1B6A03F00203002BEED10C
:101F3C00FB7D012B05D1484BDB69474A23F08053CD
:101F4C00D3617B68DB69002B00F08180424B5B68BE
:101F5C0003F00C03082B61D07B68DB69022B46D1A4
:101F6C003F4B00221A60FFF723FB386108E0FFF7B4
:101F7C001FFB02463B69D31A022B01D9032367E0EE
:101F8C00354B1B6803F00073002BF0D17B681B6A88
:101F9C00B3F5803F08D1304B5B6823F400327B688B
:101FAC009B682D4913434B602B4B5B6823F47412D5
:101FBC007B68196A7B685B6A0B43274913434B6048
:101FCC00274B01221A60FFF7F3FA386108E0FFF79C
:101FDC00EFFA02463B69D31A022B01D9032337E0EF
:101FEC001D4B1B6803F00073002BF0D02FE01C4B33
:101FFC0000221A60FFF7DCFA386108E0FFF7D8FA24
:10200C0002463B69D31A022B01D9032320E0124B61
:10201C001B6803F00073002BF0D118E07B68DB69C0
:10202C00012B01D1012313E00B4B5B68FB60FB68B8
:10203C0003F480327B681B6A9A4206D1FB6803F476
:10204C0070127B685B6A9A4201D0012300E0002386
:10205C0018461837BD4680BD001002400070004085
:10206C006000424280B584B000AF786039607B6814
:10207C00002B01D10123D0E06A4B1B6803F007034E
:10208C003A689A4210D9674B1B6823F007026549DE
:10209C003B6813430B60634B1B6803F007033A6800
:1020AC009A4201D00123B8E07B681B6803F002035D
:1020BC00002B20D07B681B6803F00403002B05D099
:1020CC00594B5B68584A43F4E06353607B681B6868
:1020DC0003F00803002B05D0534B5B68524A43F4C2
:1020EC0060535360504B5B6823F0F0027B689B6835
:1020FC004D4913434B607B681B6803F00103002BB5
:10210C0040D07B685B68012B07D1474B1B6803F4FD
:10211C000033002B15D101237FE07B685B68022B19
:10212C0007D1414B1B6803F00073002B09D101232D
:10213C0073E03D4B1B6803F00203002B01D101231C
:10214C006BE0394B5B6823F003027B685B683649B4
:10215C0013434B60FFF72CFAF8600AE0FFF728FAFC
:10216C000246FB68D31A41F28832934201D9032309
:10217C0053E02D4B5B6803F00C027B685B689B00A3
:10218C009A42EBD1274B1B6803F007033A689A423B
:10219C0010D2244B1B6823F0070222493B681343DF
:1021AC000B60204B1B6803F007033A689A4201D07E
:1021BC00012332E07B681B6803F00403002B08D07A
:1021CC00194B5B6823F4E0627B68DB6816491343A8
:1021DC004B607B681B6803F00803002B09D0124B83
:1021EC005B6823F460527B681B69DB000E49134368
:1021FC004B6000F021F802460B4B5B681B0903F0A7
:10220C000F030A49CB5C22FA03F3094A1360094B0A
:10221C001B681846FFF78AF9002318461037BD468D
:10222C0080BD00BF0020024000100240682B000857
:10223C004C0000206000002080B487B000AF002369
:10224C00FB600023BB6000237B6100237B600023C9
:10225C003B611E4B5B68FB60FB6803F00C03042BBB
:10226C0002D0082B03D027E0194B3B6127E0FB6819
:10227C009B0C03F00F03174AD35C7B60FB6803F4E1
:10228C008033002B10D0114B5B685B0C03F0010307
:10229C00114AD35CBB607B680D4A02FB03F2BB683E
:1022AC00B2FBF3F37B6104E07B680C4A02FB03F3A3
:1022BC007B617B693B6102E0054B3B6100BF3B6985
:1022CC0018461C37BD4680BC704700BF001002404A
:1022DC0000127A00A02B0008B02B000800093D006A
:1022EC0080B485B000AF78600A4B1B680A4AA2FB29
:1022FC0003235B0A7A6802FB03F3FB6000BFFB68F5
:10230C005A1EFA60002BF9D100BF00BF1437BD462E
:10231C0080BC70474C000020D34D621080B582B059
:10232C0000AF78607B68002B01D1012341E07B6812
:10233C0093F83D30DBB2002B06D17B68002283F88A
:10234C003C207868FEF7BEFD7B68022283F83D20B6
:10235C007B681A687B6804331946104600F06EFAE5
:10236C007B68012283F846207B68012283F83E209B
:10237C007B68012283F83F207B68012283F8402090
:10238C007B68012283F841207B68012283F842207C
:10239C007B68012283F843207B68012283F8442068
:1023AC007B68012283F845207B68012283F83D205D
:1023BC00002318460837BD4680BD000080B485B0A8
:1023CC0000AF78607B6893F83D30DBB2012B01D015
:1023DC00012335E07B68022283F83D207B681B6873
:1023EC00DA687B681B6842F00102DA607B681B6864
:1023FC00164A934209D07B681B68B3F1804F04D016
:10240C007B681B68124A934211D17B681B689B68DE
:10241C0003F00703FB60FB68062B10D07B681B687E
:10242C001A687B681B6842F001021A6007E07B683F
:10243C001B681A687B681B6842F001021A60002353
:10244C0018461437BD4680BC704700BF002C0140B5
:10245C000004004080B582B000AF78607B681B68D8
:10246C001B6903F00203022B22D17B681B68DB681B
:10247C0003F00203022B1BD17B681B686FF0020276
:10248C001A617B6801221A777B681B689B6903F0D1
:10249C000303002B03D0786800F0B4F905E07868EA
:1024AC0000F0A7F9786800F0B6F97B6800221A777B
:1024BC007B681B681B6903F00403042B22D17B6827
:1024CC001B68DB6803F00403042B1BD17B681B68BF
:1024DC006FF004021A617B6802221A777B681B6812
:1024EC009B6903F44073002B03D0786800F08AF9E1
:1024FC0005E0786800F07DF9786800F08CF97B686D
:10250C0000221A777B681B681B6903F00803082BF1
:10251C0022D17B681B68DB6803F00803082B1BD1F6
:10252C007B681B686FF008021A617B6804221A77BB
:10253C007B681B68DB6903F00303002B03D078680E
:10254C0000F060F905E0786800F053F9786800F065
:10255C0062F97B6800221A777B681B681B6903F0A1
:10256C001003102B22D17B681B68DB6803F010036F
:10257C00102B1BD17B681B686FF010021A617B68F3
:10258C0008221A777B681B68DB6903F44073002B05
:10259C0003D0786800F036F905E0786800F029F986
:1025AC00786800F038F97B6800221A777B681B6822
:1025BC001B6903F00103012B0ED17B681B68DB68E0
:1025CC0003F00103012B07D17B681B686FF001023C
:1025DC001A617868FEF746FB7B681B681B6903F081
:1025EC008003802B0ED17B681B68DB6803F08003B3
:1025FC00802B07D17B681B686FF080021A617868AA
:10260C0000F06BFA7B681B681B6903F04003402BDE
:10261C000ED17B681B68DB6803F04003402B07D1AD
:10262C007B681B686FF040021A61786800F0FCF858
:10263C007B681B681B6903F02003202B0ED17B6881
:10264C001B68DB6803F02003202B07D17B681B6819
:10265C006FF020021A61786800F036FA00BF083774
:10266C00BD4680BD80B584B000AF78603960002372
:10267C00FB737B6893F83C30012B01D10223B4E04F
:10268C007B68012283F83C207B68022283F83D2082
:10269C007B681B689B68BB60BB6823F07703BB60DF
:1026AC00BB6823F47F43BB607B681B68BA689A6085
:1026BC003B681B68B3F5005F3ED0B3F5005F00F2DA
:1026CC008780B3F5805F00F08680B3F5805F7FD89C
:1026DC00702B1AD0702B7BD8602B50D0602B77D8F6
:1026EC00502B3CD0502B73D8402B58D0402B6FD84C
:1026FC00302B64D0302B6BD8202B60D0202B67D89C
:10270C00002B5CD0102B5AD062E07B6818683B68B9
:10271C0099683B685A683B68DB6800F05EF97B6837
:10272C001B689B68BB60BB6843F07703BB607B682E
:10273C001B68BA689A604FE07B6818683B689968B8
:10274C003B685A683B68DB6800F047F97B681B689C
:10275C009A687B681B6842F480429A603CE07B6814
:10276C0018683B6859683B68DB681A4600F0BEF88D
:10277C007B681B685021184600F015F92CE07B682B
:10278C0018683B6859683B68DB681A4600F0DCF84F
:10279C007B681B686021184600F005F91CE07B681B
:1027AC0018683B6859683B68DB681A4600F09EF86D
:1027BC007B681B684021184600F0F5F80CE07B683C
:1027CC001A683B681B681946104600F0ECF803E0E9
:1027DC000123FB7300E000BF7B68012283F83D20DE
:1027EC007B68002283F83C20FB7B18461037BD46E3
:1027FC0080BD80B483B000AF786000BF0C37BD469D
:10280C0080BC704780B483B000AF786000BF0C37D9
:10281C00BD4680BC704780B483B000AF786000BF09
:10282C000C37BD4680BC704780B483B000AF786075
:10283C0000BF0C37BD4680BC7047000080B485B02B
:10284C0000AF786039607B681B68FB607B68254A49
:10285C00934207D07B68B3F1804F03D07B68224A48
:10286C00934208D1FB6823F07003FB603B685B6804
:10287C00FA681343FB607B681A4A934207D07B6863
:10288C00B3F1804F03D07B68174A934208D1FB68A1
:10289C0023F44073FB603B68DB68FA681343FB600E
:1028AC00FB6823F080023B685B691343FB607B6829
:1028BC00FA681A603B689A687B68DA623B681A6847
:1028CC007B689A627B68074A934203D13B681A691A
:1028DC007B681A637B6801225A6100BF1437BD46BE
:1028EC0080BC7047002C01400004004080B487B0CD
:1028FC0000AFF860B9607A60FB681B6A7B61FB68AB
:10290C001B6A23F00102FB681A62FB689B693B613E
:10291C003B6923F0F0033B617B681B013A6913436D
:10292C003B617B6923F00A037B617A69BB681343C3
:10293C007B61FB683A699A61FB687A691A6200BF2D
:10294C001C37BD4680BC704780B487B000AFF860C0
:10295C00B9607A60FB681B6A7B61FB681B6A23F0B9
:10296C001002FB681A62FB689B693B613B6923F4AC
:10297C0070433B617B681B033A6913433B617B6982
:10298C0023F0A0037B61BB681B017A6913437B6155
:10299C00FB683A699A61FB687A691A6200BF1C3756
:1029AC00BD4680BC704780B485B000AF786039609C
:1029BC007B689B68FB60FB6823F07003FB603A68E4
:1029CC00FB68134343F00703FB607B68FA689A606B
:1029DC0000BF1437BD4680BC704780B487B000AFD1
:1029EC00F860B9607A603B60FB689B687B617B69CF
:1029FC0023F47F437B613B681A027B681A43BB68F4
:102A0C0013437A6913437B61FB687A699A6000BF50
:102A1C001C37BD4680BC704780B485B000AF786071
:102A2C0039607B6893F83C30012B01D1022341E0E3
:102A3C007B68012283F83C207B68022283F83D20CE
:102A4C007B681B685B68FB607B681B689B68BB6072
:102A5C00FB6823F07003FB603B681B68FA68134348
:102A6C00FB607B681B68FA685A607B681B68144AB9
:102A7C00934209D07B681B68B3F1804F04D07B680C
:102A8C001B68104A93420CD1BB6823F08003BB60D7
:102A9C003B685B68BA681343BB607B681B68BA68A9
:102AAC009A607B68012283F83D207B68002283F8C2
:102ABC003C20002318461437BD4680BC704700BF2D
:102ACC00002C01400004004080B483B000AF78605B
:102ADC0000BF0C37BD4680BC704780B483B000AFDC
:102AEC00786000BF0C37BD4680BC704770B50026BF
:102AFC000C4D0D4C641BA410A64209D100F022F819
:102B0C0000260A4D0A4C641BA410A64205D170BDC8
:102B1C0055F8043B98470136EEE755F8043B9847C7
:102B2C000136F2E7B42B0008B42B0008B42B0008D4
:102B3C00B82B000803460244934200D1704703F8B7
:102B4C00011BF9E7F8B500BFF8BC08BC9E467047FE
:0C2B5C00F8B500BFF8BC08BC9E467047EE
:102B68000000000000000000010203040607080935
:102B78003F000000060000005B0000004F0000005E
:102B8800660000006D0000007D00000007000000E6
:102B98007F0000006F000000020304050607080913
:0C2BA8000A0B0C0D0E0F101001020000B3
:042BB40031010008E3
:042BB8000D01000803
:102BBC000100000001000000010000000100000005
:102BCC00C80000000100000001000000010000002E
:102BDC0001000000C800000001000000010000001E
:102BEC000100000001000000C8000000050000000A
:102BFC0002000000030000000A0000000024F400A2
:102C0C0001000000020000000300000004000000AE
:082C1C0010000000010000009F
:04000005080014C11A
:00000001FF
